:020000040800F2
:100000005850001055020008F11E0008771900082A
:10001000ED1E0008E90B0008216200080000000046
:100020000000000000000000000000009D0100082A
:10003000E511000800000000F101000879580008EF
:100040006F0200086F0200086F0200086F020008CC
:100050006F0200086F0200086F0200086F020008BC
:100060006F0200086F0200086F0200086F020008AC
:100070006F0200086F0200086F0200086F0200089C
:100080006F0200086F0200086F0200086F0200088C
:100090006F0200086F0200086F02000839120008A2
:1000A0006F0200086F0200086F0200086F0200086C
:1000B0006F0200081D5900086F0200086F02000857
:1000C0006F0200086F0200086F0200086F0200084C
:1000D0006F020008015B0008E95C00086F0200087D
:1000E000E91100086F0200086F0200086F020008A3
:1000F0006F0200086F0200086F0200086F0200081C
:100100006F0200086F0200086F0200086F0200080B
:10011000855A00086F0200086F0200086F0200088D
:100120006F0200086F0200086F0200086F020008EB
:100130006F0200086F0200086F0200086F020008DB
:100140006F0200086F0200086F0200086F020008CB
:100150006F0200086F0200086F0200086F020008BB
:100160006F0200086F0200086F0200086F020008AB
:100170006F0200086F0200086F0200086F0200089B
:100180006F0200086F020008DFF80CD000F044FB9B
:1001900000480047D1750008585000102A4B1968D4
:1001A0000868B0E8F04F80F30988BFF36F8F4FF015
:1001B000000080F3118870470000000006480068C6
:1001C000006880F3088862B661B6BFF34F8FBFF353
:1001D0006F8F00DF00BF00BF08ED00E0DFF80C000C
:1001E000016841F470010160704700BF88ED00E0D4
:1001F000EFF30980BFF36F8F134B1A681EF0100FD7
:1002000008BF20ED108A20E9F04F106008B44FF0CD
:10021000500080F31188BFF34F8FBFF36F8F0AF048
:1002200053FC4FF0000080F3118808BC196808687F
:10023000B0E8F04F1EF0100F08BFB0EC108A80F34A
:100240000988BFF36F8F704700010010EFF305803E
:10025000704700000648804706480047FEE7FEE773
:10026000FEE7FEE7FEE7FEE7FEE7FEE7FEE7FEE766
:10027000B5580008890100080649074A0868504334
:1002800043F2390210440860400870470149086091
:10029000704700007C0100106D4EC64140EA01032A
:1002A0009B0703D009E008C9121F08C0042AFAD22C
:1002B00003E011F8013B00F8013B521EF9D27047F0
:1002C000D2B201E000F8012B491EFBD27047002298
:1002D000F6E710B513460A4604461946FFF7F0FF45
:1002E000204610BD30B504460020034600E05B1CEC
:1002F000934203D2E05CCD5C401BF8D030BD2DE9C9
:10030000FE4F81EA030404F0004421F00041009410
:100310004FF0000B23F0004350EA01045ED052EA94
:1003200003045BD0C3F30A54C1F30A552C44A4F26E
:10033000F3340194A0FB0254C1F3130141F4801182
:10034000C3F3130343F4801301FB024400FB034E89
:10035000840A970A44EA815447EA8357A4FB076852
:1003600002958D0A05FB07854FEA932C04FB0C547C
:100370002705029D4FEA065847EA1637B5EB0805F0
:100380006EEB070C870E920E47EA811742EA831242
:10039000A7FB0201B6EB0B0164EB00042B0D43EA53
:1003A0000C335E1844EB1C50DA465146E7FB020161
:1003B000C5F313044FEA0B3343EA14534FEA0432F4
:1003C000019C43EA0603A4F10C040294009CCDE9CD
:1003D00000B400F0FCF803B0BDE8F08F0020014647
:1003E000F9E72DE9F04D81EA030404F0004B21F018
:1003F000004514464FF0000A23F0004150EA050280
:1004000020D054EA01021DD0C5F30A570246C5F3B5
:100410001303C1F31300C1F30A5640F4801543F4EB
:100420008013A7EB0608101BD64608F2FD3873EBC5
:10043000050002D308F1010801E092185B41B8F110
:10044000000F03DA00200146BDE8F08D00204FF4D4
:100450008011064684460EE0171B73EB050705D393
:10046000121B63EB050306434CEA010C49084FEAF3
:10047000300092185B4150EA0107EDD152EA0300C7
:1004800012D082EA040083EA0501084305D0101B5C
:10049000AB4106D20122002306E000224FF00043C8
:1004A00002E06FF0010253101AEB06004CEB08510A
:1004B00010EB0A0041EB0B01BDE8F04D00F078B8FD
:1004C0000EB5C10F80EAE0700844CA07002140F26F
:1004D00033438DE80E000A460B4600F078F803B06F
:1004E00000BD0EB540F2334102910021CDE900116B
:1004F0000A460B4600F06BF803B000BDC1F30A5288
:1005000010B5C1F3130140F2FF3341F480119A4258
:1005100001DA002010BD40F233439A42A2F2334286
:1005200003DC524200F034F810BD904010BD2DE9BC
:10053000F05F0546002092469B4688460646814667
:1005400040241BE0284641464746224600F020F85A
:1005500053465A46C01A914110D3114618462246B6
:1005600000F06CF92D1A67EB01084F462246012076
:10057000002100F063F917EB00094E41201EA4F1A1
:100580000104DFDC484631462A464346BDE8F09F79
:10059000202A04DB203A21FA02F00021704721FAD8
:1005A00002F3D040C2F1200291400843194670473F
:1005B00010B5141E73F1000408DA401C41F100016B
:1005C00092185B411A4301D120F0010010BD2DE9C2
:1005D000F04D92469B4611B1B1FA81F202E0B0FAB9
:1005E00080F22032904600F029F904460F4640EA96
:1005F0000A0041EA0B0153465A46084313D01146FC
:1006000053EA010019D0C8F140025046FFF7C0FF7D
:1006100005460E4650465946424600F00FF908433B
:1006200005D0012004E020463946BDE8F08D0020C9
:10063000054346EAE0762C4337430A986305E40A0B
:10064000A0EB08000022FD0A44EA47540A3002D514
:1006500000200146E9E7010510196941DDE9084577
:1006600000196941BDE8F04DA2E72DE9FE4F804633
:1006700081EA0300C00F0C46009021F0004123F0F6
:100680000045B8EB0200A94105D2404621469046FC
:100690001C460B46024623F00040104347D0270D6E
:1006A000C7F30A00C3F30A510290401A0190402890
:1006B0006BDAC3F3130040F4801B0098924620B11C
:1006C0000023D2EB030A63EB0B0B01985946C0F1F0
:1006D0004002504600F0B2F806460D4650465946D4
:1006E000019A00F0BAF810EB08006141002487EA93
:1006F000115284EAE7731A4340D0009A62B3019A18
:10070000012A4FEA075215DC001B61EB02014FF092
:10071000004202EA0752CDE90042001C41F5801177
:1007200032462B46FFF753FF03B0BDE8F08F40463B
:100730002146F9E7001B61EB0201001C41F5801323
:1007400000185B412018A2F5001747EB030140EAAF
:10075000D570B6196D4111E06D084FEA360645EACD
:10076000C0754FEA0752001B61EB0201001C41F506
:10077000801149084FEA30000019514132462B469A
:1007800003B0BDE8F04FFFF713BF0098012240000F
:100790000023D0EB020263EBE073009821464FEA9E
:1007A000E074B8EB000061EB0401E9E783F000437B
:1007B0005BE781F0004158E770B521F00043034347
:1007C0000CD0C1F30A550024D5EB040564EB0403F7
:1007D000D617AD1AB34102DB0020014670BD2018C8
:1007E00041EB025170BD000030B5041E71F10004F0
:1007F00004DB4FF00044404264EB0101141E73F12E
:10080000000405DB1C464FF00043524263EB040337
:10081000994208BF904230BD064C074D06E0E068A3
:1008200040F0010394E8070098471034AC42F6D337
:10083000FFF7AEFCD0C2000810C30008202A04DB7A
:10084000203A00FA02F1002070479140C2F12003E3
:1008500020FA03F3194390407047202A06DBCB1798
:10086000203A41FA02F043EAE07306E041FA02F36B
:10087000D040C2F1200291400843194670472DE94B
:10088000F04D00231A461B1A8A4103DB0020014663
:10089000BDE8F08DC1F30A52C1F3130141F4801594
:1008A0004FF0000BD10702D100186D41521E0027F6
:1008B000044640F2FF11384601EB620A3E4680468C
:1008C000024600204FF48011FFF762FEC219714109
:1008D000BB1846EB0100B4EB030C75EB000C04D322
:1008E000E41A65EB000517460E46241908F10100CD
:1008F0006D4180463428E3DDF91946EB0600091BFB
:10090000A84103D24FF0FF32134601E00022134604
:100910001BEB070046EB0A51BDE8F04DFFF748BE60
:1009200070B58C1810F8015B15F0070301D110F8B1
:10093000013B2A1106D110F8012B03E010F8016BDE
:1009400001F8016B5B1EF9D12B0705D40023521E61
:100950000DD401F8013BFAE710F8013BCB1A921CC9
:1009600003E013F8015B01F8015B521EF9D5A142C7
:10097000D8D3002070BD000070B506460C46304646
:1009800000F0D8FD05464FF6FF70854209D01A48A1
:100990004455012C03D10021A0F52F7041550120B1
:1009A00070BD16480088B0F52F7F07DB144800782B
:1009B00010B114A005F036FC0020F1E70F480088C4
:1009C00000EB40001D4901EB400031680160B18837
:1009D00081800A48018808484454012C04D1002130
:1009E000064802880A30815404480088401C0349A4
:1009F00008800120D4E70000EA0200202400002043
:100A0000600000100D0A746865206C697374276EAD
:100A1000756D20697320657863656564204D415864
:100A20004E554D2D3120696E2041444449445F416B
:100A30007474726962282921000000009810002057
:100A400070B506460C46304600F074FD05464FF67C
:100A5000FF70854208D01C4844551C4801681C485A
:100A600040F82510012070BD17480A380088B0F5FD
:100A70002F7F07DB1748007810B117A005F0D2FBD5
:100A80000020F0E710480A38008800EB40002049B9
:100A900001EB400031680160B18881800A480A3862
:100AA00001880A3044540948016807480A38028816
:100AB000074840F82210A0F284500088401C0249E8
:100AC0000A3908800120CEE72E0000200000002017
:100AD000A8050020600000100D0A746865206C698C
:100AE0007374276E756D206973206578636565641E
:100AF000204D41584E554D2D3120696E20414444C2
:100B000049445F5265675374617465282921000068
:100B1000981000202DE9F0410546002400275022BE
:100B20002146641C2F48425400222146641C425432
:100B30002A782146641C42546A782146641C425437
:100B4000AA782146641C4254EA782146641C425427
:100B50002A792146641C42546A792046611CCCB231
:100B600020490A5413222046611CCCB21D490A5464
:100B7000FF222046611CCCB21A490A54A01EC7B2FB
:100B800039461848801C01F0B7FC06463212204650
:100B9000611CCCB213490A542046611CCCB21149E5
:100BA0000E5400222046611CCCB20E490A5427463E
:100BB000A7F10900487000260AE0781E0949085C80
:100BC000895D0844C1B2781E064A1154701C86B271
:100BD000781EB042F1DC3946002003F063FBBDE82B
:100BE000F08100000E24001000BFFEE770B505463E
:100BF000284600F09FFC04464FF6FF70844205D063
:100C00000448005D012801D1204670BD4FF6FF70F9
:100C1000FBE70000EA02002070B50546284600F018
:100C200089FC04464FF6FF70844205D00448005DFD
:100C3000022801D1204670BD4FF6FF70FBE700008F
:100C4000EA020020012023490870322088724FF602
:100C50000170088100208881A92088702E211D48FC
:100C6000C170002101714171FF218171C1710020AA
:100C7000184948708873C87301200882022048828E
:100C8000012008750020C8874FF47A70C883C820F7
:100C90004883052088836420088448840A20887556
:100CA000C87508764876B7EE000A084680ED0A0A4D
:100CB0009FED090A80ED0B0A90F8400010B906205C
:100CC000088602E00220034908860320014981F8D2
:100CD00040007047841500102A00004010B5002124
:100CE000034A116051605321312004F031FE10BDE0
:100CF000A000001000B58FB00121480501F058FB9D
:100D0000614800F065F900BF5F4800F00DFA002867
:100D1000FAD15D48183000F05BF900BF5A4818302E
:100D200000F002FA0028F9D14FF000600090574817
:100D30000190574802900020039040F2AA5004907E
:100D4000002005904FF480600690002007900890E6
:100D500009904FF480300A9000200B9003200C90F3
:100D600000200D900E906946474800F00DFA4FF0B4
:100D70000060009045480190464802904020039052
:100D800040F2AA500490002005904FF48060069035
:100D900000200790089009904FF480300A900020BE
:100DA0000B9003200C9000200D900E906946364861
:100DB000183000F0E9F90121334800F0FDF832481D
:100DC000483800F005F900BF2F48483800F0ACF96A
:100DD0000028F9D12C48183800F0FAF800BF2A484A
:100DE000183800F0A1F90028F9D14FF00060009008
:100DF0002948019029480290002003904FF4877001
:100E00000490002005904FF4806006900020079029
:100E1000089009904FF480300A9000200B90032036
:100E20000C9000200D900E9069461748483800F04D
:100E3000ABF94FF0006000901748019018480290FD
:100E4000402003904FF487700490002005904FF4E9
:100E50008060069000200790089009904FF4803041
:100E60000A9000200B9003200C9000200D900E9013
:100E700069460548183800F087F9012102484838CA
:100E800000F09AF80FB000BD8860024004440040B2
:100E9000A283002004900020044C00404C890020D4
:100EA000AE95002000B58FB00121880501F080FAD1
:100EB000304800F08DF800BF2E4800F035F90028CA
:100EC000FAD12C48303000F083F800BF2948303088
:100ED00000F02AF90028F9D14FF000600090264870
:100EE0000190264802900020039040F2AA500490FE
:100EF000002005904FF48060069000200790089035
:100F000009904FF480300A9000200B9003200C9041
:100F100000200D900E906946164800F035F94FF00C
:100F20000060009014480190154802904020039002
:100F300040F2AA500490002005904FF48060069083
:100F400000200790089009904FF480300A9000200C
:100F50000B9003200C9000200D900E9069460548E0
:100F6000303000F011F90121024800F025F80FB0EF
:100F700000BD00008864024004100140F87D00209C
:100F80005A8A00200246094B9A4201D2084801E0E1
:100F90000648103801F000531BB1064B0B40C360EC
:100FA00002E0044B0B408360704700001064024075
:100FB000006002407D0F7D0F21B1026842F0010206
:100FC000026003E0026822F0010202607047000044
:100FD000016821F001010160002101604160816030
:100FE000C1600161212141614A49884204D13D210A
:100FF000484A103A91608CE046491831884205D140
:101000004FF47461434A103A916082E041493031B3
:10101000884205D14FF474113E4A103A916078E04D
:101020003C494831884205D14FF07461394A103A41
:1010300091606EE037496031884204D13649354AC3
:10104000103AD16065E033497831884204D13349A0
:10105000304A103AD1605CE02E499031884204D188
:101060002F492C4A103AD16053E02A49A8318842CE
:1010700005D14FF03D51274A103AD16049E0294946
:10108000884204D13D21274A083A116041E02549B0
:101090001831884205D14FF47461224A083A116030
:1010A00037E020493031884205D14FF474111D4A90
:1010B000083A11602DE01B494831884205D14FF0B4
:1010C0007461184A083A116023E016496031884279
:1010D00004D11149134A121F11601AE011497831E5
:1010E000884204D10D490F4A121F116011E00D49C9
:1010F0009031884204D10A490A4A121F116008E05F
:101100000849A831884204D14FF03D51054A121FC9
:1011100011607047106002403D000020400F002029
:1011200000003D2010640240014600200A6802F0E1
:1011300001020AB1012000E0002070470146486822
:1011400080B2704730B503460A46002000240B4D9C
:10115000AB4201D20A4901E00849103902F00055BA
:101160000DB14C6800E00C68064D2C4004EA020505
:101170000DB1012000E0002030BD000010640240ED
:10118000006002407D0F7D0F10B500220268134BF6
:101190001A40CC680B6823434C6923438C69234372
:1011A000CC6923430C6A23434C6A23438C6A234350
:1011B0004C6B23438C6B23431A430260426922F039
:1011C0000702D1E90B3423431A4342610B694360A0
:1011D0004B6883608B68C36010BD00003F801CF0CB
:1011E000416070477047000010B500244FF4804004
:1011F00000F074F850B10E4A08210E48006809F05A
:1012000093FDC4B24FF4804000F062F84FF4805078
:1012100000F064F850B1064A10210648006809F051
:1012200083FDC4B24FF4805000F052F810BD0000AE
:10123000A80000103000001010B500244FF480709A
:1012400000F04CF850B1064A20210648006809F029
:101250006BFDC4B24FF4807000F03AF810BD00008E
:10126000A8000010300000102DE9FE4306460C4691
:101270001546204600F078FA8046204600F0EEFD44
:1012800007460121880301F0B3F84146304603F0D8
:10129000D1F9009400208DF8040008208DF8050095
:1012A00001208DF80600684600F024F8F8B28DF8A9
:1012B0000800E8B28DF8090000208DF80A0001202E
:1012C0008DF80B0002A800F015FEBDE8FE830000BB
:1012D0000149086070470000143C014001460020AD
:1012E000034A12680A400AB1012000E0002070475A
:1012F000143C0140002123498279002A3AD00A4651
:10130000126803689A430B461A600A1D1268036844
:101310009A430B1D1A60027911440A6803681A4344
:101320000A60184A0832126803689A43154B08335A
:101330001A601A1D126803689A43124B0C331A6024
:101340004279102A0ED11A1F126803681A430D4BF6
:1013500008331A601A1D126803681A43094B0C33CC
:101360001A600DE00749427911440A6803681A437C
:101370000A6005E0027911440A6803689A430A602A
:1013800070470000003C014030B10749096841F452
:101390008061054A116005E00349096821F4806114
:1013A000014A116070470000003C024070B50446DD
:1013B0000A460026092502B909E0012A01D11602D0
:1013C00005E0022A01D1160201E04FF4407600F058
:1013D0009FF80546092D28D11548006820F4407073
:1013E00013490860084600683043086008460068F2
:1013F00020F0F80008600846006844F00201084345
:101400000B4908600846006840F48030086000F02E
:101410007FF805460648006820F00200044908608D
:101420000846006820F0F8000860284670BD0000FB
:10143000103C024009201349096801F48031B1F5DC
:10144000803F01D101201CE00E49096801F0100124
:1014500009B1062015E00B49096801F4807109B152
:1014600002200EE00749096801F0EF0109B10720E9
:1014700007E00449096801F0020109B1082000E011
:10148000092070470C3C02400348006840F00040CF
:101490000149086070470000103C024030B5024628
:1014A0000C46092500F034F80546092D19D10E48DF
:1014B000006820F440700C4908600846006840F459
:1014C000007008600846006840F001000860146081
:1014D00000F01EF805460448006820F001000249AB
:1014E0000860284630BD0000103C024005480068F6
:1014F00000F0004028B1044802490C390860034854
:1015000008607047103C024023016745AB89EFCD6E
:1015100008B509200090FFF78DFF009002E0FFF76B
:1015200089FF00909DF800000128F8D09DF8000088
:1015300008BD000070B505461348008810B94FF685
:10154000FF7070BD10480088B0F52F7F04DD04F0F7
:101550008DF84FF6FF70F4E700240DE004EB440132
:101560000A4A02EB410006222946FEF7BBFE08B9F3
:101570002046E6E7601C84B203480088A042EDDC08
:101580004FF6FF70DDE700002400002098100020D7
:10159000F0B50A4600210023002400BF3DE00125EC
:1015A00005FA01F3156805EA03049C4234D1056885
:1015B0004F000326BE40B543056015794E00B54087
:1015C0000668354305601579012D02D01579022D85
:1015D00016D185684F000326BE40B5438560557916
:1015E0004E00B540866835438560456801268E40CB
:1015F000B5434560456896798E40B6B2354345603F
:10160000C5684F000326BE40B543C560D5794E007E
:10161000B540C6683543C560491C1029BFD3F0BD2D
:10162000F0B5002300244D07ED0E02FA05F3CE10AD
:1016300000F1200555F826504E07F70E0F26BE4044
:10164000B543CF1000F1200646F82750CE1000F128
:10165000200555F8265045EA0304CE1000F1200578
:1016600045F82640F0BD0246002013690B400BB13F
:10167000012000E0002070474183704701837047DC
:1016800042694A40426170470AB1018300E04183E8
:101690007047000010B500201F4948808880C8802E
:1016A000088108460088B0F52F7F02DD03F0DEFFD9
:1016B00010BD002429E01948005D012805D1164815
:1016C0004088401C1449488008E01448005D022806
:1016D00004D111488088401C0F4988800E480A3088
:1016E000005D022805D10C48C088401C0A49C8800A
:1016F00009E009480A30005D012804D10648008944
:10170000401C05490881601C84B203480088A0423F
:10171000D1DC00BFCCE7000024000020EA0200205A
:1017200070B505462846FFF705FF04464FF6FF70E3
:10173000844202D00248005D70BDFF20FCE700003B
:10174000EA02002070B505462846FFF7F3FE04467E
:101750004FF6FF70844202D00248005D70BDFF204A
:10176000FCE700002E0000200146002001F47F422B
:101770000AB140F008004FF2F0020A400AB140F00E
:1017800004004CF6CC420A400AB140F002004AF68E
:10179000AA220A400AB140F0010070471CB501219D
:1017A000032000F005FE01210C2000F001FE0121C4
:1017B000102000F0FDFD4FF40060009001208DF836
:1017C000040000208DF8060003208DF8050001209C
:1017D0008DF8070069465948FFF7DAFE4FF40040DC
:1017E000009000208DF8040002208DF80700694663
:1017F0005248FFF7CDFE4FF48070009001208DF825
:1018000004008DF8070003208DF8050069464C4858
:10181000FFF7BEFE4FF48040009000208DF80400DA
:1018200001208DF8070069464448FFF7B1FE072202
:101830004FF480410420FFF717FD4FF40070009033
:1018400001208DF8040000208DF8060001208DF89D
:1018500005008DF8070069463948FFF799FE4FF4F7
:101860000050009000208DF8040002208DF8070041
:1018700069463348FFF78CFE4FF48040009001200A
:101880008DF804008DF807008DF8050069462C4896
:10189000FFF77EFE4FF48050009000208DF804008A
:1018A00001208DF8070069462548FFF771FE0822E0
:1018B00051020320FFF7D8FC4FF4004000900120B4
:1018C0008DF8040000208DF8060001208DF8050039
:1018D0008DF8070069461A48FFF75AFE4FF400706A
:1018E000009000208DF8040002208DF80700694662
:1018F0001448FFF74DFE4FF48070009001208DF8E2
:1019000004008DF807008DF8050069460E48FFF7C2
:101910003FFE4FF48070009000208DF804000120FD
:101920008DF8070069460748FFF732FE09224FF499
:1019300080710220FFF798FC1CBD000000100240DF
:10194000000C0240000802400000024010B50446AE
:10195000204605F017FE10BD70B505460E4614462C
:1019600024B931462846FFF787FE03E03146284672
:10197000FFF784FE70BD00BFFEE7000010B504460F
:1019800014B1012C0CD105E0002204210848FFF716
:101990007BFE0AE0012204210548FFF775FE04E002
:1019A00004210348FFF76CFE00BF00BF10BD00001C
:1019B000000802404CF6CC40014908607047000026
:1019C0000030004010B500F013F810BD70B50546AA
:1019D0000C4645F2555000F0DDF8284600F010F8AE
:1019E000204600F013F800F003F8FFF7E3FF70BDA6
:1019F0004AF6AA2001490860704700000030004004
:101A0000014948607047000000300040014988608B
:101A1000704700000030004008B578E000213C48E5
:101A2000006809F0C5F804463A480078F8B104F0B7
:101A3000240024280AD124213548006809F0B8F888
:101A4000FFF7C0FF0020344908802FE032480088AB
:101A5000782807DAFFF7B6FF2F480088401C2E4988
:101A6000088023E021462DA004F0DCFB1EE004F0FA
:101A7000440044280AD144212548006809F098F818
:101A8000FFF7A0FF0020244908800FE022480088CB
:101A9000782807DAFFF796FF1F480088401C1E4988
:101AA000088003E0214626A004F0BCFB2C48006817
:101AB0002C49096843F698221144884205D92848E0
:101AC00000682849086000F0B9F8002003460122A8
:101AD000114600902448006809F038F9054605F0E1
:101AE000010040B121A004F09DFB40F6B83008F0A1
:101AF000B1FD03F093FE41F2883008F0ABFD2448BD
:101B0000006808B9012000E000202149086085E74D
:101B100034000010630000106C0000100D0A4957DB
:101B20004447206576656E742C7578426974733A03
:101B30003078255820205553415254310000000080
:101B40000D0A49574447206576656E742C757842B6
:101B50006974733A25642020555341525432000071
:101B60000000002004000020380000100D0A20733F
:101B7000797374656D2077696C6C20726573657418
:101B800020616674657220337365636F6E64210033
:101B90008002424201490860704700000030004066
:101BA0001CB50121102000F003FC0121042000F0ED
:101BB000FFFB0320009001208DF8040000208DF829
:101BC000060003208DF8050001208DF80700694606
:101BD0001848FFF7DDFC03211648FFF74DFD0220F2
:101BE000009001208DF8040000208DF806000320ED
:101BF0008DF8050001208DF8070069460E48FFF7B3
:101C0000C7FC02210C48FFF737FD0420009001209B
:101C10008DF804008DF8060002208DF805000020E4
:101C20008DF8070069460448FFF7B2FC0120FFF772
:101C3000A5FE1CBD001002400008024070B5002443
:101C400002243B483B490A68C0F8022009798171A7
:101C5000072400222146641C425411222146641CA0
:101C6000425456222146641C425420443249D1F841
:101C700002200260C9888180A41D2F488089021239
:101C80002146641C2A4842542B48027B2146641C8E
:101C900027484254284890F840202146641C244894
:101CA0004254264802782146641C214842540122AD
:101CB0002146641C425400222146641C42542146A1
:101CC000641C42542146641C4254A01E81B2184830
:101CD000801C00F011FC064632122146641C144898
:101CE00042542046611C8CB211490E54A01E000AB9
:101CF0000870A01E487010480078012816D11048BE
:101D0000007838B100231A460E48006809F008FB35
:101D1000054607E000231A4605490B48006809F00C
:101D2000FFFA054615B909A004F07CFA70BD000061
:101D3000CC15001038BF00088415001013000020D7
:101D400063000010440000104C0000100D0A204CED
:101D50006F61645F4865617274426561743A556190
:101D6000727454785F4D6573736167654461746123
:101D70005F512069732066756C6C20616E642073FE
:101D8000656E64206661696C210000002DE9F041F8
:101D900006460F460024022470222146641C1A487D
:101DA000425420441949D1F802200260C988818038
:101DB000A41D05222146641C134842542146641C7C
:101DC00046542146641C4754A01E000A0E49087060
:101DD000A01E48700E48007838B100231A460D48FE
:101DE000006809F09DFA054607E000231A460649F7
:101DF0000948006809F094FA054615B907A004F0EF
:101E000011FABDE8F0810000CC1500108415001017
:101E100063000010440000104C0000100D0A204E1A
:101E20006574436D645F554C5F41434B3A55617235
:101E30007454785F4D657373616765446174615F65
:101E4000512069732066756C6C20616E6420736527
:101E50006E64206661696C21000000000146B1F5E6
:101E6000807F38D012DC102930D008DC012925D041
:101E7000022925D0042925D008292FD124E02029A2
:101E800026D0402925D0802928D123E0B1F5805FD4
:101E900027D009DCB1F5007F1ED0B1F5806F1ED0D0
:101EA000B1F5006F1AD11BE0B1F5005F1AD0B1F5A2
:101EB000804F18D0B1F5004F10D115E006207047C3
:101EC0000720FCE70820FAE70920F8E70A20F6E7F0
:101ED00000BF00BF00BF00BF1720F0E700BF00BF7A
:101EE00000BF00BF00BF00BF2820E8E700BFFEE73B
:101EF0007047000070B5002100230F22C4781CB386
:101F0000174C246804F4E064C4F5E064C4F30721CA
:101F1000C1F10404E3B20A4144789C40E1B2847800
:101F2000144021430C07210E0E4C057861550478AE
:101F300004F01F050124AC4005786D11AD0005F1DA
:101F4000E025C5F8004109E0047804F01F050124EC
:101F5000AC40054D0678761145F8264070BD00006E
:101F60000CED00E000E400E080E100E00249014304
:101F7000024A1160704700000000FA050CED00E015
:101F80002DE9F04704460E464FF00009C84694F884
:101F9000A90594F8A81500EB012085B2B5F5B56F39
:101FA00000DD00250A2D12DBB9F1000F0FD105224B
:101FB0001E492046FEF796F948B9A079617900EBF1
:101FC000012087B2F81D854201D14FF00108B8F118
:101FD000010F13D1A81E81B2204600F08DFA82466F
:101FE000681E215CA81E205C01EB0020504504D037
:101FF0004FF000080EA004F015F900BFB8F1000F73
:1020000009D03146204606F0FBFA10B10120BDE8A8
:10201000F0870020FBE732462946204606F026FBE3
:1020200008B10120F3E70020F1E7000038BF000805
:102030000D0A244E657450726F436F6D5F52785F66
:1020400050726F2C435243204572726F722E000003
:10205000F8B50646FFF71EFB8048018880A004F013
:10206000E1F87E48008900907C48C38882884188D6
:102070007F4804F0D7F8062E31D2DFE806F03003AF
:102080000C151E27754801887AA004F0CBF882A0B1
:1020900004F0C8F827E07148418889A004F0C2F82C
:1020A0007DA004F0BFF81EE06C4881888DA004F08C
:1020B000B9F879A004F0B6F815E06848C18892A094
:1020C00004F0B0F874A004F0ADF80CE063480189A6
:1020D00096A004F0A7F870A004F0A4F803E09CA078
:1020E00004F0A0F800BF00BF00250024B0E0062ED9
:1020F00020D2DFE806F0AA0320426487611C9DA07D
:1021000004F090F800270AE004EB44009C4A02EB3C
:102110004000C15D9BA004F085F8781CC7B2062F73
:10212000F2DB4E480A30025D00F52F70015D97A08A
:1021300004F078F889E09A48005D01281CD1681CF9
:1021400085B2294697A004F06DF800270AE004EB59
:1021500044008B4A02EB4000C15D8AA004F062F8A3
:10216000781CC7B2062FF2DB3C480A30025D8C486F
:10217000015D86A004F056F867E08948005D0228FA
:102180001CD1681C85B2294686A004F04BF80027B4
:102190000AE004EB44007A4A02EB4000C15D79A0FA
:1021A00004F040F8781CC7B2062FF2DB2B480A3047
:1021B000025D7B48015D75A004F034F845E02748D6
:1021C0000A30005D02281CD1681C85B2294675A022
:1021D00004F028F800270AE004EB4400684A02EB08
:1021E0004000C15D67A004F01DF8781CC7B2062F3F
:1021F000F2DB1A480A30025D6948015D63A004F011
:1022000011F822E015480A30005D01281CD1681C35
:1022100085B2294663A004F005F800270AE004EB24
:102220004400574A02EB4000C15D56A003F0FAFF9C
:10223000781CC7B2062FF2DB08480A30025D584806
:10224000015D52A003F0EEFF00BF00BF601C84B22E
:1022500002480088A0423FF74AAFF8BD24000020A2
:102260000D0A4E6F64656E756D3D25642C0000008F
:10227000E4C100080D0A2D2D2D414C4C2D53656EE7
:102280004E6F64654C6973742825303564292D2D93
:102290002D2D2D2D2D0000000D0A202020534E2025
:1022A0002020202020202049442020202020204EB3
:1022B0002F422F5720204E2F462F53202000000062
:1022C0000D0A2D2D2D426C61636B2D53656E4E6F83
:1022D00064654C6973742825303564292D2D2D2DA6
:1022E0002D0000000D0A2D2D2D57686974652D53A2
:1022F000656E4E6F64654C697374282530356429AA
:102300002D2D2D2D2D0000000D0A2D5265675375C2
:1023100063636573732D53656E4E6F64654C6973AB
:10232000742825303564292D2D0000000D0A2D2D2F
:102330002D5265674661696C2D53656E4E6F6465FD
:102340004C6973742825303564292D2D2D0000002B
:102350000D0A2D2D2D2D2D4572726F7220434D4487
:102360002042797465202D2D2D2D2D2D2D2D2D2DD7
:102370002D0000000D0A20252035642020000000DB
:102380009810002025303258000000002020202521
:10239000316420202020202025316420000000000E
:1023A000EA0200200D0A20253035642020000000BC
:1023B00029B1064A12680243044B1A6004E0034A3A
:1023C00012688243014B1A607047000030380240A7
:1023D00029B1064A12680243044B1A6004E0034A1A
:1023E00012688243014B1A60704700004038024077
:1023F00029B1064A12680243044B1A6004E0034AFA
:1024000012688243014B1A60704700004438024052
:10241000F0B5002100220024022500260223324FBD
:102420003F6807F00C0121B1042905D0082937D1F4
:1024300005E02E4F076036E02D4F076033E02A4F4E
:102440003F1F3F68C7F38056274F3F1F3F6807F085
:102450003F036EB1264FB7FBF3F7DFF88CC0ACF14A
:10246000040CDCF800C0CCF3881C07FB0CF40CE077
:102470001E4FB7FBF3F7DFF870C0ACF1040CDCF8CB
:1024800000C0CCF3881C07FB0CF4174F3F1F3F68BC
:10249000C7F301477F1C7D00B4FBF5F7076002E03E
:1024A000124F076000BF00BF0F4F3F6807F0F001F9
:1024B0000909104F7A5C0768D74047600A4F3F68A8
:1024C00007F4E051890A0B4F7A5C4768D740876070
:1024D000054F3F6807F46041490B064F7A5C476837
:1024E000D740C760F0BD0000083802400024F40067
:1024F00000127A00F000001070B502460C46FF256D
:10250000FF2309E012F8010B80EA03010648405C52
:1025100080EA05030548455C201EA4F10106B4B21B
:10252000F0D143EA052070BD38BD000838BE000870
:102530001CB501210220FFF73BFF02208DF80400AB
:1025400000208DF806004FF46040009001208DF8C7
:10255000070002208DF8050069460948FFF718F8C2
:1025600005220D210648FFF75BF805220E210448DD
:10257000FFF756F805220F210148FFF751F81CBD5F
:102580000004024070B504460D46002605E014F82C
:10259000010B00F049F8701C86B2AE42F7DB70BD4B
:1025A0002DE9F04104460D461646002707E014F8D1
:1025B000010B00F039F805F8010B781C87B2B7421F
:1025C000F5DBBDE8F081000000B585B0FFF7B0FF96
:1025D00001218803FFF7FCFE0020ADF800004FF456
:1025E0008270ADF802000020ADF80400ADF80600DE
:1025F000ADF808004FF40070ADF80A003820ADF8CF
:102600000C000020ADF80E000720ADF81000694660
:10261000044800F053F80121024800F035F805B0F5
:1026200000BD00000038004010B5044600BF022184
:102630000A4800F035F80028F9D02146074800F094
:102640003BF800BF0121054800F02AF80028F9D026
:10265000024800F02EF8C0B210BD00000038004063
:1026600010B50446074800884FF6C7710840054971
:10267000088008460088204308800121014800F0B6
:1026800003F810BD0038004021B1028842F040023A
:10269000028004E002884FF6BF731A400280704740
:1026A0000246002013890B400BB1012000E00020FE
:1026B00070470146888970478181704710B50022B4
:1026C000028802F441520B884C8823438C882343B0
:1026D000CC8823430C8923434C8923438C8923438F
:1026E000CC8923431A430280838B4FF2FF7423402B
:1026F00083830B8A038210BD01461C48814201D2AC
:10270000002070471A48814201D20820F9E7194891
:10271000814201D21020F4E71748814201D21820EB
:10272000EFE71648814201D22020EAE714488142AF
:1027300001D22820E5E71348814201D23020E0E7AA
:102740001148814201D23820DBE71048814201D292
:102750004020D6E70E48814201D24820D1E70D48FB
:10276000814201D25020CCE75820CAE7004000083F
:102770000080000800C000080000010800000208F6
:1027800000000408000006080000080800000A080D
:1027900000000C0800000E0801460868704730B5BC
:1027A00003460C461546002206E01846FFF7F4FFE4
:1027B00044F822001B1D521CAA42F6D330BD000073
:1027C0002DE9F04704460E4617464FF0090800254C
:1027D000A946B4F1006F02D304F0030008B1BDE8CC
:1027E000F087FEF783FE0020FEF7CEFD254604EBC2
:1027F00087091848854215D211E02846FFF7CCFF1B
:10280000401C58B12846FFF777FF82460221FEF7A9
:10281000CDFD8046B8F1090F01D002E02D1D4D45D8
:10282000EBD300BFB8F1090F0CD108E020463168A6
:10283000FEF734FE092800D003E0241D361D4C4568
:10284000F4D300BF0120FEF79FFDFEF71DFE00BF81
:10285000C5E700000000FF1F13B582B00C469DF8CD
:102860000800C0F3401040019DF80810C1F30011AA
:1028700040EA01109DF80810C1F3C00140EAC10010
:102880009DF80810C1F3800140EA81009DF808100E
:10289000C1F3400140EA41009DF8081001F0010138
:1028A000084301902346012201A9892000F00AFE75
:1028B0001FBD38B504460D46200A8DF80000E0B271
:1028C0008DF801002B4602226946972000F0FAFDA0
:1028D00038BD70B5044621464FF4AA7000F070FC74
:1028E0000546214640F2531000F06AFC45EA0020FC
:1028F00070BD000070B52DED0A8B82B0054600203A
:10290000019000249FED3C0BB0EE408AF0EE608A0F
:10291000284600F041FA032862D006DC002860D087
:10292000012807D002285DD105E0042857D00F28E0
:1029300058D153E000BF012140F6541000F040FC94
:102940008DF80400012140F6551000F039FC8DF897
:102950000500012140F6561000F032FC8DF806000B
:102960009DF8040000049DF8051040EA01209DF840
:10297000061040EA0104C4F3130400F05DF80646B3
:10298000FDF79EFD41EC1C0B53EC1C2B9FED1C0B2B
:1029900051EC100BFDF725FD41EC1B0B9FED1A0BC5
:1029A00053EC102BFDF7ABFC41EC190B1421204626
:1029B00001F032FE0646FDF783FD41EC1B0B9FED57
:1029C000140B53EC102BFDF79AFC41EC1A0B53EC53
:1029D000192BFDF706FD41EC180B03E000BF00BF0B
:1029E00000BF00BF00BFB0EE480AF0EE680A02B0B8
:1029F000BDEC0A8B70BD000000000000000000006C
:102A000000000000000099400000000000408F40DE
:102A1000CDCCCCCCCCCCF83F38B5044623460222F2
:102A20006946152000F05AFB9DF801009DF8001042
:102A300040EA012038BD000000200B4909780A292E
:102A40000BD0182907D0262903D0342907D10748ED
:102A500007E0074805E0074803E0074801E00020D9
:102A600000BF00BF70470000CC00001075190300C4
:102A7000EA320600D4650C00A8CB180001460148D4
:102A8000405C7047C00000107CB504460D462B46E4
:102A9000052269461D2000F021FB284600F07CF944
:102AA00020702078032873D005DC48B101285AD063
:102AB000022857D158E004286BD00F28F9D162E1E1
:102AC0009DF80010484200EBD071491049B2617086
:102AD0009DF80110484200EBD07149104AB2A27033
:102AE0009DF802008009E17860F30001E1709DF833
:102AF00002004009E17860F34101E1709DF80200B5
:102B00000009E17860F38201E1709DF80200C008DD
:102B1000E17860F3C301E1709DF802008008E1787C
:102B200060F30411E1709DF802004008E17860F361
:102B30004511E1709DF80200E17860F38611E170C3
:102B40009DF803004009217960F3000121719DF88F
:102B50000300217960F3410121719DF8040000F028
:102B60000700607115E100BF9DF80010484200EBBE
:102B7000D071491049B261709DF80120802A09DAAC
:102B80009DF80110CA1701EB92729210A2700BE02F
:102B90004DE0ADE09DF80120A2F58070C21700EB7A
:102BA0009272921053B2A3709DF802008009E178EE
:102BB00060F30001E1709DF802004009E17860F3E4
:102BC0004101E1709DF802000009E17860F38201A3
:102BD000E1709DF80200C008E17860F3C301E17084
:102BE0009DF802008008E17860F30411E1709DF81F
:102BF00002004008E17860F34511E1709DF80200A1
:102C0000E17860F38611E1709DF8030040092179B5
:102C100060F3000121719DF80300217960F3410107
:102C200021719DF8040000F007006071B1E09DF88B
:102C30000010484200EBD071491049B261709DF814
:102C40000110484200EBD07149104AB2A2709DF8C1
:102C500002008109E07861F30000E0709DF8020055
:102C60004109E07861F34100E0709DF8020000093D
:102C7000E17860F38201E1709DF80200C008E1781C
:102C800060F3C301E1709DF802008008E17860F311
:102C90000411E1709DF802004008E17860F34511ED
:102CA000E1709DF80200E17860F38611E1709DF813
:102CB00003008109207961F3010020719DF8030070
:102CC0004009217960F3820121719DF80300000918
:102CD000217960F3C30121719DF80300217960F32C
:102CE000041121719DF8040000F00700607150E0AC
:102CF0009DF80010484200EBD071491049B2617054
:102D00009DF80110484200EBD07149104AB2A27000
:102D10009DF802008009E17860F30001E1709DF800
:102D200002004009E17860F34101E1709DF8020082
:102D30000009E17860F38201E1709DF80200C008AB
:102D4000E17860F3C301E1709DF802008008E1784A
:102D500060F30411E1709DF802004008E17860F32F
:102D60004511E1709DF80200E17860F38611E17091
:102D70009DF8030000F0010020719DF8040000F0B0
:102D80000700607105E000202060A0800F20207007
:102D900000BF00BF7CBD000001460148405C704799
:102DA000C6000010F8B506460C4615461F463A46C2
:102DB0006946204600F0D0F82078A84200DD257052
:102DC00022783B4631469DF8000000F013F90020C0
:102DD000F8BD00002DE9F0412DED088B04460D46AD
:102DE00000269FED4C0BB0EE408AF0EE608A28463C
:102DF000FFF7D2FF022878D12946012001F02AF9F5
:102E0000012140F67F1000F0DBF940F002072A466E
:102E1000394640F67F1000F0B9FB012140F624103E
:102E200000F0CEF900F0CF0004F0030140EA0117F2
:102E30002A46394640F6241000F0A8FB294640F601
:102E4000611000F0BDF90704294640F6621000F059
:102E5000B7F947EA0027294640F6631000F0B0F9B9
:102E600047EA00062946002001F0F4F834B1012CAD
:102E700023D0022C22D0032C38D120E0FFF7DCFD38
:102E80000746FDF71DFB41EC1A0B1821304601F0F7
:102E9000C3FB0746FDF714FB41EC1B0B53EC1A2B4D
:102EA000FDF79FFA41EC190B9FED1C0B53EC102B17
:102EB000FDF725FA41EC180B1FE000BF00BF3046BC
:102EC000FDF70FFB41EC1A0B9FED160B53EC102B8B
:102ED000FDF715FA41EC190B9FED140B53EC102B79
:102EE000FDF77FFA41EC180B07E008E09FED090BB6
:102EF000B0EE408AF0EE608A00BF00BF00E000BF85
:102F000000BFB0EE480AF0EE680ABDEC088BBDE8E1
:102F1000F081000000000000000000000000000040
:102F2000A3E1E14000000000000034400000000088
:102F30000000594038B50446002000902346012285
:102F400069461F2000F0CAF89DF80000414201EBDD
:102F5000D170401040B238BDF8B504460E46154653
:102F60002B4602226946172000F0B8F82846FFF7E2
:102F700013FF01280FD1294640F6031000F020F975
:102F80000121B1EBE01F06D1294640F6011000F007
:102F900017F920700CE02846FFF7FEFE042804D144
:102FA0009DF80000801C207002E09DF80000207059
:102FB0009DF801003070F8BD1CB50446002001905A
:102FC0002346012201A9C02000F088F89DF80400E2
:102FD00000909DF8001008461CBD70B505460C46D3
:102FE000204600F06FF92146284600F001F870BD38
:102FF000704700002DE9F04706460F4614469846F4
:1030000004F103091B20334908700846467000206C
:103010008870002505E00021E81C2E4A1154681C28
:1030200085B2A542F7DBB8F1000F06D0B8F1010F69
:103030001BD0B8F1020F48D12FE0002000F090F92A
:10304000002001F0F7F84A4623492248FFF7A8FA82
:1030500022462149C91C3846FDF720F9012001F01C
:10306000E9F8002000F07CF930E0012000F078F968
:10307000002001F0F5F84A4617491648FFF790FA84
:1030800022461549C91C3846FDF708F9012001F010
:10309000E7F8012000F064F918E0022000F060F980
:1030A000002001F0F3F84A460B490A48FFF778FA86
:1030B00022460949C91C3846FDF7F0F8012001F005
:1030C000E5F8022000F04CF900E000BF00BFBDE8C9
:1030D000F087000008270010073700102DE9F0479F
:1030E00006460F4614469846A01C1FFA80F932483F
:1030F0000670002030494870002505E00021A81C1A
:103100002D4A1154681C85B2A542F7DBB8F1000FB7
:1031100006D0B8F1010F1BD0B8F1020F48D12FE053
:10312000002000F01DF9002001F084F84A462349F0
:103130002148FFF735FA22462049891C3846FDF719
:10314000ADF8012001F076F8002000F009F930E038
:10315000012000F005F9002001F082F84A461749E5
:103160001548FFF71DFA22461449891C3846FDF719
:1031700095F8012001F074F8012000F0F1F818E052
:10318000022000F0EDF8002001F080F84A460B49DB
:103190000948FFF705FA22460849891C3846FDF719
:1031A0007DF8012001F072F8022000F0D9F800E06B
:1031B00000BF00BFBDE8F0870827001007370010E8
:1031C00038B505460C46234601226946284600F0DC
:1031D00003F89DF8000038BD2DE9F04704460F467E
:1031E00015469846281D1FFA80F9192033490870A2
:1031F000200A48708C700020C870002605E000216D
:10320000301D2E4A1154701C86B2AE42F7DBB8F165
:10321000000F06D0B8F1010F1BD0B8F1020F48D152
:103220002FE0002000F09CF8002001F003F84A464F
:1032300023492248FFF7B4F92A462149091D384697
:10324000FDF72CF8012000F0F5FF002000F088F8D1
:1032500030E0012000F084F8002001F001F84A4637
:1032600017491648FFF79CF92A461549091D3846A3
:10327000FDF714F8012000F0F3FF012000F070F8D2
:1032800018E0022000F06CF8002000F0FFFF4A4632
:103290000B490A48FFF784F92A460949091D3846AF
:1032A000FCF7FCFF012000F0F1FF022000F058F8CD
:1032B00000E000BF00BFBDE8F08700000827001055
:1032C0000737001010B5044624B1012C17D0022C8A
:1032D0003FD129E01420FEF739FB00224FF4807122
:1032E0001D48FEF739FB3220FEF730FB01221102A8
:1032F0001948FEF731FB1420FEF728FB2AE01420C2
:10330000FEF724FB00224FF480411348FEF724FB14
:103310003220FEF71BFB012291030F48FEF71CFB36
:103320001420FEF713FB15E01420FEF70FFB00221C
:103330004FF480710948FEF70FFB3220FEF706FBC1
:10334000012211020548FEF707FB1420FEF7FEFAE2
:1033500000E000BF00BF10BD000C024000000240B2
:1033600070B50546002425B1012D10D0022D2AD1BB
:103370001BE007E0641CB4F5801F03D313A002F028
:1033800051FF002400F04CFF0128F3D01CE007E0BF
:10339000641CB4F5801F03D313A002F043FF002484
:1033A00000F054FF0128F3D00EE007E0641CB4F5F0
:1033B000801F03D313A002F035FF002400F05CFF50
:1033C0000128F3D000E000BF00BF70BD5358313278
:1033D00038305F305F526561644275737950696E51
:1033E000206572726F7221005358313238305F316C
:1033F0005F526561644275737950696E20657272BF
:103400006F7221005358313238305F325F5265613C
:10341000644275737950696E206572726F72210013
:103420002DE9F04104460F4615461E4605F10208F7
:103430001A2023490870201248702A46394620482D
:10344000801CFCF72BFF26B1012E13D0022E33D1A6
:1034500021E00020FFF784FF002000F0EBFE414652
:103460001748FFF78FF8012000F0E4FE0020FFF777
:1034700077FF22E00120FFF773FF002000F0F0FE4D
:1034800041460F48FFF77EF8012000F0E9FE0120D9
:10349000FFF766FF11E00220FFF762FF002000F057
:1034A000F5FE41460648FFF76DF8012000F0EEFEFC
:1034B0000220FFF755FF00E000BF00BFBDE8F0812C
:1034C000082700102DE9F04105460F4614461E4618
:1034D000601C1FFA80F826B1012E1CD0022E4ED19E
:1034E00033E00020FFF73CFF002000F0A3FE264859
:1034F000057022463946401CFCF7D0FE4146224862
:10350000FFF740F8012000F095FE842D02D0002046
:10351000FFF726FF34E00120FFF722FF002000F034
:103520009FFE1948057022463946401CFCF7B6FE3E
:1035300041461548FFF726F8012000F091FE842D42
:1035400002D00120FFF70CFF1AE00220FFF708FF6E
:10355000002000F09BFE0C48057022463946401CB6
:10356000FCF79CFE41460848FFF70CF8012000F0EC
:103570008DFE842D02D00220FFF7F2FE00E000BF96
:1035800000BFBDE8F08100000827001037B50546F0
:1035900014462346012201A9284600F001F83EBD49
:1035A0002DE9F04104460F4615461E46E81C1FFA59
:1035B00080F8182023490870200A48708C702A4629
:1035C00039462048C01CFCF769FE26B1012E13D0F5
:1035D000022E33D121E00020FFF7C2FE002000F0D0
:1035E00029FE41461748FEF7CDFF012000F022FEDC
:1035F0000020FFF7B5FE22E00120FFF7B1FE00201A
:1036000000F02EFE41460F48FEF7BCFF012000F0FF
:1036100027FE0120FFF7A4FE11E00220FFF7A0FE25
:10362000002000F033FE41460648FEF7ABFF0120C4
:1036300000F02CFE0220FFF793FE00E000BF00BF69
:10364000BDE8F0810827001010B504462146024865
:10365000FFF7C3FC10BD0000DC0000100120014991
:1036600008707047D300001001200149487070476E
:10367000D30000100120014988707047D30000106A
:1036800001200149C8707047D300001070B504468E
:103690000F262046FFF7F2F900B970BD2046FFF76C
:1036A0007BFB06462046FFF7B7F9054621464FF655
:1036B000FF70FFF7FEF8012E47D12648005D042871
:1036C0002FD005283CD105F0020002280AD105F0D0
:1036D0004000402803D103201F49085502E0012083
:1036E0001D49085505F01000102802D103201A4981
:1036F000085505F02000202802D10320164908555E
:1037000005F48040B0F5804F02D1022012490855DF
:1037100005F48070B0F5807F02D103200E49085572
:1037200012E005F0010010B104200B49085505F422
:103730008040B0F5804F02D105200749085503E0CD
:1037400006A002F06FFD00BF02E00EA002F06AFDCD
:1037500000BFA2E7C0000010CD0000107061636BD5
:10376000657454797065204F7065726174696E6715
:103770004D6F6465206973206572726F72210D0A46
:10378000000000007061636B657454797065206996
:1037900073206572726F72210D0A000070B50446C5
:1037A000214640F62310FFF70BFD054645F02001AA
:1037B000224640F62310FFF7E9FE25F020012246BD
:1037C00040F62310FFF7E2FE70BD70B504460D46CB
:1037D0007F2C01DA7F2000E0204601462A4640F691
:1037E0001E10FFF7D3FE70BD08B586E04EF66020D0
:1037F00000230122382100904048006807F0A6FA13
:10380000064606F0B3FD06F00800082802D10020A5
:10381000FFF73CFF002000F01DFE044606F0EAFD25
:10382000062C1AD2DFE804F003041516171814E06A
:103830000023022232493348006807F071FD074631
:1038400017B931A002F0EEFCFA212D48FCF73FFD3C
:1038500003E002E001E000E000BF00BF06F086FDEB
:1038600006F01000102813D10120FFF70FFF314898
:10387000006808B9012000E000202E4908602E48A9
:10388000D0F8840208B9012000E000202B4908602C
:10389000012000F0DFFD044606F0ACFD062C1CD232
:1038A000DFE804F003041718191A16E000230222B7
:1038B0001349FA312248006807F032FD074617B96C
:1038C00020A002F0AFFCFA210D48FA30FCF7FFFC13
:1038D00003E002E001E000E000BF00BF2448006810
:1038E00006F0E4FC05463C2D03D2294621A002F057
:1038F00099FC032006F0AEFE00BF77E73000001011
:10390000202100103C0000100D0A2053583132389D
:10391000305F305F5278446174615F512069732079
:1039200066756C6C20616E642073656E64206661E0
:10393000696C2100840242420000414284024142FB
:10394000400000100D0A205358313238305F345F88
:103950005278446174615F512069732066756C6CA4
:1039600020616E642073656E64206661696C21005D
:10397000080000100D0A5358313238305278446133
:1039800074615F5461736BCAA3D3E0B6D1D5BB2514
:10399000203364007FB505460E461C46224631465C
:1039A000284600F005FA2146029800F0D1FB7FBDC1
:1039B00013B50C462346012269469E20FFF782FD7F
:1039C0001CBDF8B506460C46A6F1210085B2280AB2
:1039D0008DF80000E8B28DF8010023460222694606
:1039E0009820FFF76FFDF8BD70B504460D46210E17
:1039F0002A4640F6CF10FFF7C9FD2A46C4F3074117
:103A00004FF41D60FFF7C2FD2A46C4F3072140F6BC
:103A1000D110FFF7BBFDE1B22A4640F6D210FFF706
:103A2000B5FD70BD10B5044621460248FFF7DCFF26
:103A300010BD0000D6BE898EF8B506460C46154668
:103A40008DF800608DF801402B46022269468F20D8
:103A5000FFF738FDF8BD000010B5044623460022EC
:103A60001146C520FFF72EFD06200149085510BD5F
:103A7000C000001013B50C46234601226946882079
:103A8000FFF720FD0620014908551CBDC0000010AD
:103A900038B504460D46200A8DF80000E0B28DF8D6
:103AA00001002846FFF778F910B1032809D100E09A
:103AB00000BF2B460222694640F6C610FFF770FD94
:103AC00000E000BF00BF38BD38B504460D46200AEF
:103AD0008DF80000E0B28DF801002846FFF75CF990
:103AE00010B1032809D100E000BF2B46022269462D
:103AF00040F6C810FFF754FD00E000BF00BF38BD1E
:103B000038B504460D46200E8DF80000200C8DF8C7
:103B10000100200A8DF80200E0B28DF8030028466B
:103B2000FFF73AF9022807D12B460422694640F6EE
:103B30001610FFF735FD00E000BF00BF38BD2DE9CE
:103B4000FC4104460D4616461F46DDF82080200A3B
:103B50008DF80000E0B28DF80100280A8DF802000F
:103B6000E8B28DF80300300A8DF80400F0B28DF849
:103B70000500380A8DF80600F8B28DF807004346B4
:103B8000082269468D20FFF79DFCBDE8FC810000FE
:103B900010B50446234600221146C120FFF792FCCF
:103BA00003200149085510BDC000001013B50C4694
:103BB0002346012269469B20FFF784FC1CBD0000C0
:103BC00038B504460D462A48405D2178884203D026
:103BD0002078294600F0DCF82078032823D005DC83
:103BE00048B1012811D0022839D10FE0042824D08F
:103BF0000F2834D12BE060788DF80000A0788DF884
:103C00000100E0788DF8020029E000BF20798DF8EE
:103C1000000060798DF80100A0798DF802006079CC
:103C2000144908701BE0E0798DF80000207A8DF8C7
:103C30000100607A8DF8020011E0A07A8DF8000092
:103C4000E07A8DF80100207B8DF8020007E000206B
:103C50008DF800008DF801008DF8020000BF00BF54
:103C60002B46032269468B20FFF72CFC38BD000051
:103C7000C6000010CC0000107CB504460D46434839
:103C8000405D2178884203D02078294600F080F8F2
:103C90002078032837D005DC48B101281DD0022840
:103CA0006BD11BE0042844D00F2866D155E0607822
:103CB0008DF80000A0788DF80100E0788DF8020002
:103CC00020798DF8030060798DF80400A0798DF8D3
:103CD0000500E0798DF806004FE000BF207A8DF8EE
:103CE0000000607A8DF80100A07A8DF80200E07A79
:103CF0008DF80300207B8DF8040000208DF805006E
:103D00008DF8060039E0607B8DF80000A07B8DF80F
:103D10000100E07B8DF80200207C8DF80300607CC0
:103D20008DF80400A07C8DF80500E07C8DF806007D
:103D300023E0207D8DF80000607D8DF80100A07DDE
:103D40008DF80200E07D8DF8030000208DF804005E
:103D50008DF805008DF806000FE000208DF80000BA
:103D60008DF801008DF802008DF803008DF8040035
:103D70008DF805008DF8060000BF00BF2B46072216
:103D800069468C20FFF79EFB7CBD0000C60000103A
:103D900013B50C469DF8000004490855234601223E
:103DA00069468A20FFF78EFB1CBD0000C60000108C
:103DB00070B504460D46164633462A462146002075
:103DC000FFF72EFB70BD70B504460D462846FEF782
:103DD000E3FF02280CD1210A2A4640F62C10FFF7F7
:103DE000D5FBE1B22A4640F62D10FFF7CFFB00E0ED
:103DF00000BF00BF70BD2DE9F04105460C462046CE
:103E0000FEF7CAFF022810D105F00307012140F692
:103E10003110FFF7D5F967F39F1006462246314669
:103E200040F63110FFF7B2FB00E000BF00BFBDE875
:103E3000F08138B504460D46200E8DF80000200CA8
:103E40008DF80100200A8DF80200E0B28DF8030021
:103E50002846FEF7A1FF022807D12B460422694617
:103E600040F61210FFF79CFB00E000BF00BF38BD1A
:103E700038B505460C460095234601226946A32025
:103E8000FFF720FB38BD000070B5054600240BE0AD
:103E9000074A02EB84029178054A32F824002A4648
:103EA000FFF774FB601C04B2002CF1D070BD000061
:103EB0003EBF000813B50C462346012269469620F2
:103EC000FFF700FB1CBD000070B52DED088B82B024
:103ED00006460D4600249FED1A1B9FED1B0B02F0BA
:103EE000CBF9B0EE40BAF0EE60BA53EC1B2B9FED6D
:103EF000180B51EC100BFCF774FA41EC190B30461F
:103F0000FCF7EFFA41EC1A0B53EC192BFCF769FAAA
:103F100041EC180BFCF7F2FA0446200C8DF8040073
:103F2000200A8DF80500E0B28DF806002B4603222A
:103F300001A98620FFF7C6FA02B0BDEC088B70BD60
:103F400000000000000032400000000000000040BF
:103F500000000000A8CB884113B582B00C469DF844
:103F600008008DF80400BDF80A00000A8DF805006D
:103F7000BDF80A00C0B28DF8060021464FF6FF706A
:103F8000FEF797FC2046FEF707FF022803D12146E3
:103F90000020FFF76DFF2346032201A98220FFF7CF
:103FA00091FA0520014908551FBD0000C00000100E
:103FB0002DE9FC4107460C4615461E468DF800705B
:103FC000200A8DF80100E0B28DF80200280A8DF871
:103FD0000300E8B28DF804003346052269469420B8
:103FE000FFF770FA052002498855BDE8FC81000002
:103FF000C000001010B50446234600221146D5200B
:10400000FFF760FA10BD000013B582B00C469DF8B2
:104010000800C007000F9DF80810C1F3400140EAF6
:1040200081009DF80810C1F3800140EA41009DF82D
:104030000810C1F3C001084301900020044908554D
:104040002346012201A98420FFF73CFA1FBD00008E
:10405000C000001013B50C4623460122694680209B
:10406000FFF730FA9DF8000018B901200349085500
:1040700002E00220014908551CBD0000C0000010EC
:104080002DE9F04105460F4616464FF00008304630
:10409000FEF782FE20B1032819D0042838D12CE085
:1040A0004FF00508012D04D0022D05D0032D09D1B4
:1040B00005E040F6CE1408E040F6D31405E040F6E3
:1040C000D81402E00120BDE8F08100BF22E04FF0EB
:1040D0000408012D04D0022D05D0032D09D105E0DF
:1040E00040F6CF1407E040F6D41404E040F6D914AB
:1040F00001E00120E7E700BF0CE04FF00408012DCC
:1041000002D140F6CF1401E00120DCE700BF01E05E
:104110000120D8E700BF3346424639462046FFF724
:104120003FFA0020CFE770B504460D46012140F666
:10413000CD10FFF745F800F0F00004F00F0140EA61
:1041400001042A46214640F6CD10FFF71FFA70BD44
:1041500013B582B00C469DF808008DF80400BDF838
:104160000A00000A8DF80500BDF80A00C0B28DF8FB
:10417000060021464FF6FF70FEF79BFB2046FEF738
:104180000BFE022803D121460120FFF771FE2346D2
:10419000032201A98320FFF795F90420014908555E
:1041A0001FBD0000C000001010B5044623460022C9
:1041B0001146D220FFF786F910BD10B504462346FC
:1041C00000221146D120FFF77DF910BDF8B5064653
:1041D0000C46154606F11200C0B28DF800008DF8AD
:1041E00001402B46022269468E20FFF76BF9F8BD8D
:1041F00070B505460C462046FEF7CEFD20B10328DB
:1042000003D0042809D101E000BF00BF224629469F
:1042100040F6C510FFF7BAF900E000BF00BF70BD5F
:1042200010B54FF400410248FDF71DFA10BD000023
:104230000010024010B5044622464FF400610248C7
:10424000FDF78AFB10BD00000010024010B54FF4CE
:1042500000510248FDF707FA10BD0000000C0240B3
:1042600010B5044622464FF400710248FDF774FB76
:1042700010BD0000000C024010B54FF40071024860
:10428000FDF7F1F910BD00000008024010B504462A
:1042900022464FF400410248FDF75EFB10BD0000CE
:1042A000000C0240F8B504460D4606F05FF81048D1
:1042B000009400231A46066D0E4801880088B04716
:1042C000E9B2224640F60110FFF760F9E9B204EBCB
:1042D0004402C2EBC412084B03EB4200044A166EC0
:1042E000064A126823460092B04706F083F8F8BDEC
:1042F00044BF0008B20000100E240010B8000010E7
:10430000F0B58BB004460D463F4905FB01F03F492F
:1043100046183F480168204688473D482146026BC1
:10432000002090473A48C16A2046884739490880AA
:104330006420FDF70BFB3648C16A204688470746D4
:104340003A46214634A001F06DFF01208DF81C0093
:10435000802107A80171182141710121817101207B
:104360008DF8040006218DF80C1000218DF80D1039
:10437000FA218DF80E1020218DF80F1040218DF8B4
:10438000101023482146426B002090479DF81C00E6
:104390001F498A6B214690471D482146C26B07A8DA
:1043A00090471B4822463721836940F625109847DD
:1043B00017482146026C01A8904715482146426CD7
:1043C00030469047124822460021836C08469847A1
:1043D0000F4822460021C36C0D2098470C480094DA
:1043E00000231A46076D184801880088B847084816
:1043F000826D1648006821460090904700201449BD
:1044000008550BB0F0BD000040420F00E076058F6C
:1044100044BF0008BC0000100D0A526164696F209F
:104420006669726D776172652076657273696F6E09
:10443000206F66205358313238305F5B25755D2020
:1044400069733A3078257800B0000010B40000108D
:10445000CD000010F8B5044600255448005D06283C
:104460007BD2DFE800F0830347622E7B00204F49B8
:1044700008554F4A111904EB4402C2EBC4124D4BCC
:1044800003EB42004C4A2346D66DFA22B04710B1E6
:104490004AA001F0C7FE4848009400231A46066D62
:1044A0004F4801880088B0474348826D4D480068F6
:1044B00021460090904700204B4941F824000125F7
:1044C00070E00020394908553B48009400231A4603
:1044D000066D434801880088B0473748826D4148DF
:1044E000006821460090904700203F4941F8240091
:1044F000022557E03DA001F095FE00202B4908550C
:10450000394941F824002C48009400231A46066DCE
:10451000334801880088B0472748826D31480068D9
:1045200021460090904703253CE000201F49085594
:104530002D4941F824002048009400231A46066DB6
:10454000274801880088B0471B48826D25480068CD
:10455000214600909047042524E007E028A001F0C0
:1045600061FE00201149085505251BE01E4850F842
:1045700024002849884213D900201B4941F824000F
:104580000D48009400231A46066D154801880088DE
:10459000B0470948826D1348006821460090904753
:1045A000002500BF00BF2846F8BD0000CD00001068
:1045B000AC0000102021001044BF00080A0D205359
:1045C000585F303A50696E67207265636569766539
:1045D0002064617461746F6F206C6F6E67210000DE
:1045E000B0000010B4000010FC2600100D0A535853
:1045F0005F303A52582074696D656F7574202100E0
:104600000D0A53585F303A54582074696D656F75C0
:1046100074202100A086010010B5024610468B1EB2
:1046200002249C40944203D84B1E02249C40001B51
:1046300010BD000030B500228B071C0F0F2303FABA
:1046400004F20B4B8C1053F824309343084C8D101C
:1046500044F8253023468C1053F824308C07240F5F
:1046600000FA04F42343024C8D1044F8253030BD89
:10467000083801402DE9FC47044600262078001147
:1046800048B13348007818B1217832A001F0CAFD52
:104690000020BDE8FC876678F12E00DC0EB9002012
:1046A000F7E74FF00008002505E0605D404400F0AA
:1046B000FF08681CC5B206F108008542F5DB205CE6
:1046C000404514D02248007878B141462AA001F034
:1046D000A9FD002505E0615D34A001F0A3FD681C83
:1046E000C5B206F109008542F5DB0020D1E7A078CC
:1046F0008DF80000E0788DF8010020798DF8020037
:1047000060798DF80300A0798DF80400E0798DF8C8
:1047100005006846FDF704F881466846FDF712F883
:104720000746B9F1010F01D10120B2E7B9F1FF0F3E
:1047300001D10220ADE70FB90320AAE7022F01D172
:104740000420A6E7012F01D10520A2E70620A0E75B
:10475000610000100D0AB5DAD2BBD7D6BDDA3D250F
:1047600064A3BAB1EDC3F7B2BBCAC74D45535341B9
:104770004745D6A1A3A100000DCEA2B9A6C2CAB2D8
:10478000E0D2B5CEF1D0C5B5C0BDD3CAD5D6A1CA89
:10479000FDBEDDD0A3D1E9D7D6B4EDCEF32CC0DB7E
:1047A000BCD3BACD3D2564200D0000002025303259
:1047B000580000001CB593E000235A1E49494A489E
:1047C000006806F071FC0546012D7AD14548FFF7D7
:1047D00051FF0746062F73D2DFE807F0030433507A
:1047E00069056DE06CE03F48D0F802100091C08888
:1047F000ADF804006846FCF79DFE04464FF6FF70D6
:1048000084421DD0394850F82400394908443949B8
:104810000968884214D23848007801280BD1002357
:104820001A4669463548006806F07AFD054615B90E
:10483000334801F0F7FC2F4801682C4840F8241059
:104840003EE02848D0F802100091C088ADF804007E
:104850002C480088B0F52F7F0FDA27480078012810
:104860000BD100231A4669462448006806F058FD1B
:10487000054615B9244801F0D5FC21E01948D0F8C7
:1048800002100091C088ADF804001B480078012890
:104890000BD100231A4669461848006806F040FD0F
:1048A000054615B9194801F0BDFC09E009E00D48BD
:1048B00000F034FE04211648006806F0C1F900BF7C
:1048C00000BF1448006805F0F1FC06463C2E03D2F8
:1048D000314611A001F0A6FC052005F0BBFE00BF8B
:1048E0006AE70000E60D001040000010A805002057
:1048F00000DD6D0000000020841500105C00001039
:10490000A0C100082400002018C100085CC10008F4
:1049100034000010100000100D0A53656E42535F02
:104920004348315F5461736B202020CAA3D3E0B6A3
:10493000D1D5BB25203364002DE9FC410446002677
:104940006678F12E00DC16B90020BDE8FC81002756
:10495000002504E0605D3844C7B2681CC5B206F1AA
:1049600008008542F6DB205CB84214D03648007857
:1049700078B1394635A001F055FC002505E0615DB0
:104980003FA001F04FFC681CC5B206F1090085424A
:10499000F5DB0020D9E7A0788DF80000E0788DF8ED
:1049A000010020798DF8020060798DF80300A0796C
:1049B0008DF80400E0798DF805006846FCF716F9DB
:1049C0004FF6FF71884207D01F48007810B12EA023
:1049D00001F028FC0020B8E700272078001101280A
:1049E00004D0042826D0052828D125E0207A20B13B
:1049F000012804D0022806D103E0102718E011276F
:104A000016E0122714E01048007878B1217A28A027
:104A100001F008FC002505E0615D19A001F002FC31
:104A2000681CC5B206F109008542F5DB002700BF0E
:104A300000BF05E0022703E0032701E0002700BFD5
:104A400000BF384681E70000610000100DCEA2B91A
:104A5000A6C2CAB2E0BFD8D6C6D0C5B5C0BDD3CAFB
:104A6000D5D6A1CAFDBEDDD0A3D1E9D7D6B4EDCE4F
:104A7000F32CC0DBBCD3BACD3D25640D0000000093
:104A800020253032580000000D0A20CEA2B9A6C25F
:104A9000CAB2E0BFD8D6C6D0C5B5C0BDD3CAD5D678
:104AA000A14944D4DABADAC3FBB5A5D6D0000000D8
:104AB0000D0A20524551B5C4C0E0D0CDD3D0CEF3BD
:104AC000A3ACC6E4C0E0D0CD3D2564A3A1000000A6
:104AD0001CB584E000235A1E41494248006806F094
:104AE000E3FA0746012F6BD13D48FFF725FF064645
:104AF000102E32D004DC022E4AD0032E5FD15DE0AE
:104B0000112E02D0122E5AD113E03548D0F80210DF
:104B10000091C088ADF804006846FCF77DF80446B3
:104B20004FF6FF70844203D00021204600F06EF85B
:104B300045E02B48D0F802100091C088ADF8040081
:104B40006846FCF769F804464FF6FF70844203D0CC
:104B50000021204600F03CF931E02148D0F8021055
:104B60000091C088ADF804006846FCF755F804468B
:104B70004FF6FF7084420AD00121204600F046F82B
:104B8000142002F0FFFC0021204600F021F916E07D
:104B90001348D0F802100091C088ADF804006846B0
:104BA000FCF73AF804464FF6FF70844202D068469C
:104BB000FBF7B0FF0A4800F0B1FC00E000BF00BF07
:104BC0000948006805F072FB05463C2D03D22946D2
:104BD00006A001F027FB052005F03CFD00BF79E7AA
:104BE000E00E00103C0000100C0000100D0A536590
:104BF0006E4354525F43485F5461736B202020CA58
:104C0000A3D3E0B6D1D5BB25203364002DE9F35FF3
:104C1000054600240026A046674850F8259000F578
:104C20002F6030F815A000F5AF6010F805B000F562
:104C30002F7050F8258000BF00BF019830B9302296
:104C40002046611CCCB25D490A5405E02022204672
:104C5000611CCCB259490A5400222046611CCCB2D6
:104C600056490A540846204405EB4501544A02EBD4
:104C700041010A68026089888180A01DC4B2B9F12F
:104C8000000F31D0BAF1000F2ED0B8F1000F2BD0A9
:104C9000BBF1000F28D0FF222046611CCCB247494F
:104CA0000A5408462044444901EB85010968016023
:104CB000201DC4B241482044424901EB4501098806
:104CC0000180A01CC4B23D4801193F4800EB85009B
:104CD00000680860201DC4B23C48425D2046611C4B
:104CE000CCB236490A5445E0B9F1000F0ED000228B
:104CF0002046611CCCB231490A54084620442E4952
:104D000001EB850109680160201DC4B2BAF1000FF2
:104D10000ED001222046611CCCB228490A54084614
:104D20002044284901EB450109880180A01CC4B238
:104D3000B8F1000F0ED002222046611CCCB21F49F0
:104D40000A5408460119204800EB850000680860F5
:104D5000201DC4B2BBF1000F0CD003222046611C01
:104D6000CCB216490A541948425D2046611CCCB2A7
:104D700012490A5400222046611CCCB20F490A5441
:104D80002646A6F10900487000270AE0701E0B496C
:104D9000085CC95D0844C1B2701E084A1154781CF1
:104DA00087B2701EB842F1DC31460020FFF77AFA74
:104DB0000120BDE8FC9F0000002100200E2400100F
:104DC00098100020F02B00202434002068310020AF
:104DD0002DE9F84307468846002400267C4830F831
:104DE0002700ADF800007A4800EB87004088ADF856
:104DF000020000BF00BFB8F1000F06D138222046E4
:104E0000611CCCB273490A5405E028222046611C7B
:104E1000CCB270490A5400222046611CCCB26D49C4
:104E20000A540846204407EB47016B4A02EB410154
:104E30000A68026089888180A01DC4B20025BDF87F
:104E4000000008B1681C85B2BDF8020008B1681CFA
:104E500085B2002D7ED0042000EB0510C2B22046A2
:104E6000611CCCB25B490A540B222046611CCCB2B7
:104E700058490A54BDF8000040B3BDF800000021B5
:104E800041EA8000C2B22046611CCCB251490A54AA
:104E9000BDF80000002141EA8000C0F3072220464F
:104EA000611CCCB24B490A54084620444B4901EBE3
:104EB000071109680160201DC4B2464820444749D3
:104EC00001EB071149680160201DC4B2BDF8020062
:104ED00040B3BDF80200002141EA8000C2B2204682
:104EE000611CCCB23B490A54BDF80200002141EAE2
:104EF0008000C0F307222046611CCCB235490A5419
:104F000008462044354901EB071189680160201DDE
:104F1000C4B230482044314901EB0711C96801602F
:104F2000201DC4B2A01EC6B231462A48801CFDF71F
:104F3000E3FA05462A122046611CCCB225490A54E0
:104F40002046611CCCB223490D5400222046611C2E
:104F5000CCB200E01CE01F490A542646A6F1090025
:104F6000487000250AE0701E1A49085C495D084433
:104F7000C1B2701E174A1154681C85B2701EA84237
:104F8000F1DC31460020FFF78DF90120BDE8F88300
:104F900000222046611CCCB20E490A542646A6F1D6
:104FA0000900487000250AE0701E0A49085C495D46
:104FB0000844C1B2701E074A1154681C85B2701EA5
:104FC000A842F1DC31460020FFF76CF90020DDE754
:104FD000087300200E24001098100020484700207D
:104FE00030B505460E48008800B930BD0C48008831
:104FF000B0F52F7F02DD00F039FBF6E7002408E072
:105000000848005DA84202D1002106480155601CF5
:1050100084B203480088A042F2DC00BFE5E700004C
:1050200024000020EA0200203EB505462846FCF791
:1050300081FA04464FF6FF70844201D100203EBD44
:10504000A4480188601C814254D104EB4400A24969
:1050500001EB40000021016081809E480A3001552B
:1050600000F52F7001559D4801689D4840F82410B7
:1050700000209C4941F8240001F52F6121F814001B
:1050800001F5AF6108550021974840F82410002031
:105090009649085501F52F7101EB041108609449F8
:1050A00001EB04114860924901EB041188609049BA
:1050B00001EB0411C8608F4921F814008E4921F8D2
:1050C000240001EB8401488082480088401E814909
:1050D00008808A48007858B168792979EA78CDE95A
:1050E00000210290AB786A78297885A001F09AF8BF
:1050F0000120A4E777480088401E7649088004EB29
:105100004400754901EB40007249098801EB4101F7
:10511000714A02EB41010A680260898881806D480A
:1051200001880A30415C01550A38018800F2C62026
:10513000415C015567480188694850F8211040F8E2
:10514000241064480088674951F8200041F8240081
:105150006048008801F52F6131F8100021F8140033
:105160005C48008801F5AF61085C08555948018822
:105170005D4850F8211040F82410564800885B49DB
:10518000085C085553480088594901EB0010006835
:1051900001EB041108604F480088554901EB0010ED
:1051A000406801EB041148604A480088504901EB0F
:1051B0000010806801EB04118860464800884C4963
:1051C00001EB0010C06801EB0411C8604148008881
:1051D000484931F8100021F814003E48008846493B
:1051E00031F8200021F824003A48008801EB8000C3
:1051F000408801EB840148803648008800EB40007D
:10520000354901EB4000002101608180314802886E
:105210000A3081540A38028800F2C62081542F488F
:1052200001682C4802882E4840F8221000202949A5
:1052300009882C4A42F821002649098802F52F6284
:1052400022F8110000212348008802F5AF621154B2
:1052500020480288244840F8221000201D4909886F
:10526000224A505400211B480088214A02EB0010BA
:10527000016000201749098802EB011148601549B7
:10528000098802EB011188601249098802EB0111BB
:10529000C86010490988174A22F811000D49098889
:1052A000154A22F821000B49098802EB8101488048
:1052B0001248007858B168792979EA78CDE9002157
:1052C0000290AB786A7829780DA000F0ABFF01203E
:1052D000B5E6000024000020981000200000002007
:1052E000A805002000210020243400208C44002048
:1052F00048470020143F0020087300206000001081
:105300000D0A2044454C206C6973742073756363E7
:105310006565642C49443D253032582C20253032B7
:10532000582C20253032582C20253032582C20255E
:105330003032582C202530325821000070B50646F6
:105340000C463046FCF7F6F805464FF6FF708542EE
:1053500003D003484455012070BD0020FCE7000045
:10536000EA0200201CB500200090019000250027D3
:1053700000248CE046480078012874D14548006834
:1053800004F072FFC5B2002D7DDD1F2D7BDA42488F
:1053900042490A68C0F802200979817100203E491B
:1053A000C8710872582048727020887201F10B0091
:1053B0003749D1F802200260C9888180022036492D
:1053C0004874032088740020C874142400271FE048
:1053D000681EC5B200231A4669462E48006805F0CB
:1053E00063FE8046B8F1010F0AD12B482044009992
:1053F0000160BDF804108180A01D84B2781CC7B282
:1054000040F29B50844203DD25A000F00BFF01E039
:10541000002DDDDC00BF200A1F4908704C70E01F22
:10542000000AC871E01F08720846C774A01E81B246
:105430001948801CFDF760F8064632122046611CB0
:105440008CB215490A542046611C8CB212490E5484
:105450001F48007840B100231A461E48006805F036
:105460005FFF804608E00EE000231A460A491A480A
:10547000006805F055FF8046B8F1000F02D117A073
:1054800000F0D0FE00BF4FF47A7005F0E3F871E74A
:10549000841500105C000010DA0F001038BF0008FF
:1054A0000D0A2053656E52656753656E645F5461E3
:1054B000736B3A52656753656E736F7249445F74DC
:1054C000656D706275662069732066756C6C21006D
:1054D00063000010440000104C0000100D0A20531F
:1054E000656E52656753656E645F5461736B3A55C0
:1054F00061727454785F4D6573736167654461745C
:10550000615F512069732066756C6C20616E642048
:1055100073656E64206661696C2100002DE9FC41B1
:1055200004463248007801285ED1657860780930F9
:10553000C7B207F10900FA2852DA022D50DDD4F87B
:1055400002000090E088ADF80400384605E0411EF6
:10555000625C0F316254411E88B20028F7DC05F10D
:105560001700C5B228122070657021480168C4F880
:1055700002100079A071E81F000AE071E81F207294
:10558000582060724420A0720098C4F80B00BDF847
:105590000400A4F80F00A81E81B2A01CFCF7ACFF09
:1055A00080464FEA28206055681C04F800801148A6
:1055B000007840B100231A4621460F48006805F0E4
:1055C000AFFE064607E000231A4621460B48006856
:1055D00005F0A6FE064616B909A000F023FE03E07A
:1055E000394617A000F01EFEBDE8FC8184150010AE
:1055F00038BF000863000010440000104C00001089
:105600000D0A2053656E42535F4348315F54617306
:105610006B3A335561727454785F4D65737361678B
:1056200065446174615F512069732066756C6C20FC
:10563000616E642073656E64206661696C21000090
:105640000D0A20746865206C656E677468206F664B
:105650002073656E736F72206461746120697320BA
:10566000746F6F206C6F6E673A2564000021264AC4
:10567000118051809180D1801181002040E000EBA9
:105680004001224A02EB410100220A608A801E4941
:105690000A310A5401F52F710A541D490A681D493F
:1056A00041F8202000211C4A42F8201002F52F6208
:1056B00022F8101002F5AF6211540022174941F888
:1056C00020200021164A115402F52F7202EB00121D
:1056D0001160144A02EB00125160124A02EB0012F0
:1056E0009160104A02EB0012D1600F4A22F81010AC
:1056F0000E4A22F8201002EB80025180411C88B231
:10570000B0F52F7FBBDB70472400002098100020ED
:1057100000000020A80500200021002024340020E3
:105720008C44002048470020143F002008730020CC
:105730000CB50020019000903448006840F480309F
:105740003249086000BF3148006800F40030009022
:105750000198401C0190009818B90198B0F5A04F2D
:10576000F1D12A48006800F4003010B10120009007
:1057700001E0002000900098012846D123484030E5
:10578000006840F08050214940310860204800689E
:1057900040F440401E4908601C48083000681B491E
:1057A000083108600846006840F400400860084678
:1057B000006840F4A05008601648091F0860081FE0
:1057C000006840F08070091F086000BF0F48006843
:1057D00000F000700028F9D040F205700E49086012
:1057E0000A480830006820F00300084908310860C2
:1057F0000846006840F00200086000BF0348083017
:10580000006800F00C000828F8D10CBD00380240F8
:105810000070004008544007003C0240012080F323
:10582000138800BF00BFBFF34F8F0748006800F424
:10583000E06006490843001D03490860BFF34F8F2D
:1058400000BF00BFFEE700000CED00E00000FA051D
:10585000042808D14FF0E021096941F004014FF01C
:10586000E022116107E04FF0E021096921F0040115
:105870004FF0E0221161704710B505F03BFF0128A1
:1058800001D005F0BDFB09480068401C07490860CD
:1058900007480068401C0649086008464068401CEC
:1058A000486008468068401C886010BD00000020E9
:1058B000FC26001010B51548006840F4700013492C
:1058C00008601348006840F001001149086000209A
:1058D0000F49083108600E4800680E4908400C491D
:1058E00008600D48091D0860081F006820F480202A
:1058F000091F0860002006490C310860FFF718FFF7
:105900004FF0006001498039086010BD88ED00E06B
:1059100000380240FFFFF6FE1030002410B50121D0
:10592000094800F052F8012808D108480268406888
:10593000521C40F1000005490A60486001210248FC
:1059400000F034F810BD000000040040A00000107A
:105950007FB505460C4601210220FCF739FD029572
:10596000ADF804400020ADF80600ADF80C0001A928
:105970000D4800F045F8012211460B4800F036F8BA
:105980000121094800F015F81D208DF800000120C4
:105990008DF8010000208DF8020001208DF8030031
:1059A0006846FCF7A7FA7FBD00040040CA430282A4
:1059B000704721B1028842F00102028004E00288AF
:1059C0004FF6FE731A400280704730B50246002041
:1059D00000230024158A05EA0103958905EA0104DC
:1059E00013B10CB1012000E0002030BD1AB1838951
:1059F0000B43838102E083898B43838170470000DE
:105A000000220288184B98420ED0184B98420BD0B7
:105A1000B0F1804F08D0164B984205D0154B9842F4
:105A200002D0154B984204D14FF68F731A404B8821
:105A30001A43124B984207D0114B984204D04FF6AC
:105A4000FF431A400B891A4302804B68C3620B88DC
:105A50000385054B984202D0044B984201D18B7AC2
:105A60000386012383827047000001400004014047
:105A70000004004000080040000C004000100040FE
:105A80000014004038B5002540F22441184800F0C9
:105A900080FA01282AD11648048800F033FB044616
:105AA00000211448FBF788FA1248FBF747FBC0F5C2
:105AB000877084B22012104981F80C0181F80D41E1
:105AC00000236A460D48006805F00CFDC5B24FF48E
:105AD00087710948FAF7FBFB4FF081510548FBF746
